{
  "_format": "hh-sol-artifact-1",
  "contractName": "AVIPRegistry",
  "sourceName": "contracts/core/AVIPRegistry.sol",
  "abi": [
    {
      "inputs": [],
      "stateMutability": "nonpayable",
      "type": "constructor"
    },
    {
      "inputs": [],
      "name": "AlreadyVerified",
      "type": "error"
    },
    {
      "inputs": [
        {
          "internalType": "bytes32",
          "name": "batchId",
          "type": "bytes32"
        }
      ],
      "name": "BatchAlreadyExists",
      "type": "error"
    },
    {
      "inputs": [
        {
          "internalType": "bytes32",
          "name": "batchId",
          "type": "bytes32"
        }
      ],
      "name": "BatchNotFound",
      "type": "error"
    },
    {
      "inputs": [],
      "name": "EnforcedPause",
      "type": "error"
    },
    {
      "inputs": [],
      "name": "ExpectedPause",
      "type": "error"
    },
    {
      "inputs": [
        {
          "internalType": "uint256",
          "name": "size",
          "type": "uint256"
        }
      ],
      "name": "InvalidBatchSize",
      "type": "error"
    },
    {
      "inputs": [],
      "name": "InvalidMerkleRoot",
      "type": "error"
    },
    {
      "inputs": [],
      "name": "InvalidPreviousBatch",
      "type": "error"
    },
    {
      "inputs": [
        {
          "internalType": "address",
          "name": "owner",
          "type": "address"
        }
      ],
      "name": "OwnableInvalidOwner",
      "type": "error"
    },
    {
      "inputs": [
        {
          "internalType": "address",
          "name": "account",
          "type": "address"
        }
      ],
      "name": "OwnableUnauthorizedAccount",
      "type": "error"
    },
    {
      "inputs": [],
      "name": "ReentrancyGuardReentrantCall",
      "type": "error"
    },
    {
      "inputs": [
        {
          "internalType": "address",
          "name": "validator",
          "type": "address"
        }
      ],
      "name": "UnauthorizedValidator",
      "type": "error"
    },
    {
      "inputs": [],
      "name": "ZeroAddress",
      "type": "error"
    },
    {
      "anonymous": false,
      "inputs": [
        {
          "indexed": true,
          "internalType": "bytes32",
          "name": "batchId",
          "type": "bytes32"
        },
        {
          "indexed": true,
          "internalType": "bytes32",
          "name": "merkleRoot",
          "type": "bytes32"
        },
        {
          "indexed": false,
          "internalType": "bytes32",
          "name": "mmrRoot",
          "type": "bytes32"
        },
        {
          "indexed": true,
          "internalType": "address",
          "name": "submitter",
          "type": "address"
        },
        {
          "indexed": false,
          "internalType": "uint256",
          "name": "timestamp",
          "type": "uint256"
        },
        {
          "indexed": false,
          "internalType": "uint256",
          "name": "itemCount",
          "type": "uint256"
        },
        {
          "indexed": false,
          "internalType": "bytes32",
          "name": "previousBatchId",
          "type": "bytes32"
        }
      ],
      "name": "BatchSubmitted",
      "type": "event"
    },
    {
      "anonymous": false,
      "inputs": [
        {
          "indexed": true,
          "internalType": "bytes32",
          "name": "batchId",
          "type": "bytes32"
        },
        {
          "indexed": true,
          "internalType": "address",
          "name": "verifier",
          "type": "address"
        },
        {
          "indexed": false,
          "internalType": "uint256",
          "name": "timestamp",
          "type": "uint256"
        }
      ],
      "name": "BatchVerified",
      "type": "event"
    },
    {
      "anonymous": false,
      "inputs": [
        {
          "indexed": true,
          "internalType": "address",
          "name": "previousOwner",
          "type": "address"
        },
        {
          "indexed": true,
          "internalType": "address",
          "name": "newOwner",
          "type": "address"
        }
      ],
      "name": "OwnershipTransferred",
      "type": "event"
    },
    {
      "anonymous": false,
      "inputs": [
        {
          "indexed": false,
          "internalType": "address",
          "name": "account",
          "type": "address"
        }
      ],
      "name": "Paused",
      "type": "event"
    },
    {
      "anonymous": false,
      "inputs": [
        {
          "indexed": false,
          "internalType": "address",
          "name": "account",
          "type": "address"
        }
      ],
      "name": "Unpaused",
      "type": "event"
    },
    {
      "anonymous": false,
      "inputs": [
        {
          "indexed": true,
          "internalType": "address",
          "name": "validator",
          "type": "address"
        },
        {
          "indexed": true,
          "internalType": "address",
          "name": "authorizer",
          "type": "address"
        },
        {
          "indexed": false,
          "internalType": "uint256",
          "name": "timestamp",
          "type": "uint256"
        }
      ],
      "name": "ValidatorAuthorized",
      "type": "event"
    },
    {
      "anonymous": false,
      "inputs": [
        {
          "indexed": true,
          "internalType": "address",
          "name": "validator",
          "type": "address"
        },
        {
          "indexed": true,
          "internalType": "address",
          "name": "revoker",
          "type": "address"
        },
        {
          "indexed": false,
          "internalType": "uint256",
          "name": "timestamp",
          "type": "uint256"
        }
      ],
      "name": "ValidatorRevoked",
      "type": "event"
    },
    {
      "inputs": [],
      "name": "MAX_BATCH_SIZE",
      "outputs": [
        {
          "internalType": "uint256",
          "name": "",
          "type": "uint256"
        }
      ],
      "stateMutability": "view",
      "type": "function"
    },
    {
      "inputs": [],
      "name": "MIN_BATCH_SIZE",
      "outputs": [
        {
          "internalType": "uint256",
          "name": "",
          "type": "uint256"
        }
      ],
      "stateMutability": "view",
      "type": "function"
    },
    {
      "inputs": [
        {
          "internalType": "address",
          "name": "validator",
          "type": "address"
        }
      ],
      "name": "authorizeValidator",
      "outputs": [],
      "stateMutability": "nonpayable",
      "type": "function"
    },
    {
      "inputs": [
        {
          "internalType": "bytes32",
          "name": "batchId",
          "type": "bytes32"
        }
      ],
      "name": "getBatch",
      "outputs": [
        {
          "components": [
            {
              "internalType": "bytes32",
              "name": "batchId",
              "type": "bytes32"
            },
            {
              "internalType": "bytes32",
              "name": "merkleRoot",
              "type": "bytes32"
            },
            {
              "internalType": "bytes32",
              "name": "mmrRoot",
              "type": "bytes32"
            },
            {
              "internalType": "address",
              "name": "submitter",
              "type": "address"
            },
            {
              "internalType": "uint256",
              "name": "timestamp",
              "type": "uint256"
            },
            {
              "internalType": "uint256",
              "name": "itemCount",
              "type": "uint256"
            },
            {
              "internalType": "bytes32",
              "name": "previousBatchId",
              "type": "bytes32"
            },
            {
              "internalType": "bool",
              "name": "verified",
              "type": "bool"
            }
          ],
          "internalType": "struct AVIPRegistry.Batch",
          "name": "",
          "type": "tuple"
        }
      ],
      "stateMutability": "view",
      "type": "function"
    },
    {
      "inputs": [
        {
          "internalType": "uint256",
          "name": "index",
          "type": "uint256"
        }
      ],
      "name": "getBatchIdByIndex",
      "outputs": [
        {
          "internalType": "bytes32",
          "name": "",
          "type": "bytes32"
        }
      ],
      "stateMutability": "view",
      "type": "function"
    },
    {
      "inputs": [],
      "name": "getLatestBatch",
      "outputs": [
        {
          "internalType": "bytes32",
          "name": "",
          "type": "bytes32"
        }
      ],
      "stateMutability": "view",
      "type": "function"
    },
    {
      "inputs": [
        {
          "internalType": "address",
          "name": "validator",
          "type": "address"
        }
      ],
      "name": "isValidatorAuthorized",
      "outputs": [
        {
          "internalType": "bool",
          "name": "",
          "type": "bool"
        }
      ],
      "stateMutability": "view",
      "type": "function"
    },
    {
      "inputs": [],
      "name": "owner",
      "outputs": [
        {
          "internalType": "address",
          "name": "",
          "type": "address"
        }
      ],
      "stateMutability": "view",
      "type": "function"
    },
    {
      "inputs": [],
      "name": "pause",
      "outputs": [],
      "stateMutability": "nonpayable",
      "type": "function"
    },
    {
      "inputs": [],
      "name": "paused",
      "outputs": [
        {
          "internalType": "bool",
          "name": "",
          "type": "bool"
        }
      ],
      "stateMutability": "view",
      "type": "function"
    },
    {
      "inputs": [],
      "name": "renounceOwnership",
      "outputs": [],
      "stateMutability": "nonpayable",
      "type": "function"
    },
    {
      "inputs": [
        {
          "internalType": "address",
          "name": "validator",
          "type": "address"
        }
      ],
      "name": "revokeValidator",
      "outputs": [],
      "stateMutability": "nonpayable",
      "type": "function"
    },
    {
      "inputs": [
        {
          "internalType": "bytes32",
          "name": "merkleRoot",
          "type": "bytes32"
        },
        {
          "internalType": "bytes32",
          "name": "mmrRoot",
          "type": "bytes32"
        },
        {
          "internalType": "uint256",
          "name": "itemCount",
          "type": "uint256"
        },
        {
          "internalType": "bytes32",
          "name": "previousBatchId",
          "type": "bytes32"
        }
      ],
      "name": "submitBatch",
      "outputs": [
        {
          "internalType": "bytes32",
          "name": "batchId",
          "type": "bytes32"
        }
      ],
      "stateMutability": "nonpayable",
      "type": "function"
    },
    {
      "inputs": [],
      "name": "totalBatches",
      "outputs": [
        {
          "internalType": "uint256",
          "name": "",
          "type": "uint256"
        }
      ],
      "stateMutability": "view",
      "type": "function"
    },
    {
      "inputs": [
        {
          "internalType": "address",
          "name": "newOwner",
          "type": "address"
        }
      ],
      "name": "transferOwnership",
      "outputs": [],
      "stateMutability": "nonpayable",
      "type": "function"
    },
    {
      "inputs": [],
      "name": "unpause",
      "outputs": [],
      "stateMutability": "nonpayable",
      "type": "function"
    },
    {
      "inputs": [
        {
          "internalType": "bytes32",
          "name": "batchId",
          "type": "bytes32"
        }
      ],
      "name": "verifyBatch",
      "outputs": [],
      "stateMutability": "nonpayable",
      "type": "function"
    },
    {
      "inputs": [
        {
          "internalType": "bytes32",
          "name": "batchId",
          "type": "bytes32"
        }
      ],
      "name": "verifyChainIntegrity",
      "outputs": [
        {
          "internalType": "bool",
          "name": "isValid",
          "type": "bool"
        }
      ],
      "stateMutability": "view",
      "type": "function"
    }
  ],
  "bytecode": "0x608060405234620000265762000014620000c3565b604051611328620002db823961132890f35b600080fd5b620000419062000044906001600160a01b031682565b90565b6001600160a01b031690565b62000041906200002b565b620000419062000050565b9062000072906200005b565b600052602052604060002090565b9060ff905b9181191691161790565b151590565b90620000a862000041620000b0926200008f565b825462000080565b9055565b9052565b90815260200190565b565b620000ce3362000130565b620000e76001620000e133600562000066565b62000094565b620000f2336200005b565b807f1f02cdbe686a9f5729cbe1e7631f6a1645e3e46e504c0811279ab8f2b1a237096200011e60405190565b806200012b4282620000b8565b0390a3565b620000c1906200017e565b6200004162000041620000419290565b6200004160016200013b565b906000199062000085565b906200017662000041620000b0926200013b565b825462000157565b6200018990620001d7565b620000c1620001976200014b565b600162000162565b6200004462000041620000419290565b62000041906200019f565b620000b49062000044565b602081019291620000c19190620001ba565b620001e36000620001af565b620001ee8162000044565b620001f98362000044565b146200020b5750620000c19062000278565b62000231906200021a60405190565b631e4fbdf760e01b815291829160048301620001c5565b0390fd5b620000419062000044565b62000041905462000235565b906001600160a01b039062000085565b906200027062000041620000b0926200005b565b82546200024c565b620002a66200029f6200028c600062000240565b620002998460006200025c565b6200005b565b916200005b565b907f8be0079c531659141344cd1fd0a4f28419497f9722a3daafe3b4186f6b6457e0620002d260405190565b80806200012b56fe6080604052600436101561001257600080fd5b60003560e01c8063047564b7146101325780633f4ba83a1461012d5780635c975abb1461012857806369ff6abb14610123578063715018a61461011e57806380dd2be8146101195780638456cb59146101145780638da5cb5b1461010f578063a0b6041d1461010a578063b70d753d14610105578063bd7b358c14610100578063c71de90a146100fb578063cfdbf254146100f6578063d9ab12aa146100f1578063e0c9fdcb146100ec578063ed42136f146100e7578063f2fde38b146100e25763f5e24b0003610137576104b5565b610461565b61043a565b61039c565b610381565b610366565b610338565b610320565b610305565b6102ea565b61028e565b610276565b61025b565b610224565b6101f9565b6101c8565b6101ac565b610180565b600080fd5b6001600160a01b031690565b90565b6001600160a01b0381165b0361013757565b9050359061016a8261014b565b565b90602082820312610137576101489161015d565b346101375761019861019336600461016c565b61060f565b604051005b0390f35b600091031261013757565b34610137576101bc3660046101a1565b61019861062b565b9052565b34610137576101d83660046101a1565b61019d6101e760025460ff1690565b60405191829182901515815260200190565b34610137576102093660046101a1565b61019d610214610644565b6040519182918290815260200190565b34610137576102343660046101a1565b610198610686565b6101486101486101489290565b610148600161023c565b610148610249565b346101375761026b3660046101a1565b61019d610214610253565b34610137576102863660046101a1565b6101986106a1565b346101375761029e3660046101a1565b61019d6102a96106bc565b604051918291826001600160a01b03909116815260200190565b80610156565b9050359061016a826102c3565b9060208282031261013757610148916102c9565b346101375761019d6102146103003660046102d6565b61075c565b34610137576103153660046101a1565b61019d61021461078f565b346101375761019861033336600461016c565b61087e565b346101375761019d6101e761034e3660046102d6565b6109dc565b6101486103e861023c565b610148610353565b34610137576103763660046101a1565b61019d61021461035e565b346101375761019d6101e761039736600461016c565b610aa9565b34610137576101986103af3660046102d6565b610bcc565b8051825261016a919060e09081906103d160208201516020860152565b6103e060408201516040860152565b6060818101516001600160a01b03169085015261040260808201516080860152565b61041160a082015160a0860152565b61042060c082015160c0860152565b01511515910152565b6101008101929161016a91906103b4565b346101375761019d6104556104503660046102d6565b610c1a565b60405191829182610429565b346101375761019861047436600461016c565b610cca565b6080818303126101375761048d82826102c9565b9261014861049e84602085016102c9565b9360606104ae82604087016102c9565b94016102c9565b346101375761019d6102146104cb366004610479565b9291909161113e565b61016a906104e061114c565b610592565b6101489061013c906001600160a01b031682565b610148906104e5565b610148906104f9565b9061051590610502565b600052602052604060002090565b0190565b1561052e57565b60405162461bcd60e51b815260206004820152600e60248201526d139bdd08185d5d1a1bdc9a5e995960921b6044820152606490fd5b0390fd5b9060ff905b9181191691161790565b9061058761014861058e92151590565b8254610568565b9055565b6105cd906105b36105ae6105a783600561050b565b5460ff1690565b610527565b6105c860006105c383600561050b565b610577565b610502565b6105d633610502565b907f11d509855cb67fe6844c7aa1c19f3f7da35d123e73bcffb6c4e2f7f5438adb6e61060160405190565b42815280602081015b0390a3565b61016a906104d4565b61062061114c565b61016a61016a6111e0565b61016a610618565b6101489081565b6101489054610633565b610148600661063a565b61065661114c565b61016a610674565b61013c6101486101489290565b6101489061065e565b61016a610681600061066b565b6111e8565b61016a61064e565b61069661114c565b61016a61016a61127c565b61016a61068e565b6101489061013c565b61014890546106a9565b61014860006106b2565b156106cd57565b60405162461bcd60e51b8152602060048201526013602482015272496e646578206f7574206f6620626f756e647360681b6044820152606490fd5b634e487b7160e01b600052603260045260246000fd5b805482101561074157610738600191600052602060002090565b91020190600090565b610708565b610148916008021c81565b906101489154610746565b6107896101489161076b600090565b5061078261077b61014860045490565b82106106c6565b600461071e565b90610751565b610148600761063a565b61016a906107a561114c565b6107eb565b156107b157565b60405162461bcd60e51b8152602060048201526012602482015271105b1c9958591e48185d5d1a1bdc9a5e995960721b6044820152606490fd5b6107f861013c600061066b565b6001600160a01b0382161461086c578061082861082361081f6105a761083895600561050b565b1590565b6107aa565b6105c860016105c383600561050b565b61084133610502565b907f1f02cdbe686a9f5729cbe1e7631f6a1645e3e46e504c0811279ab8f2b1a2370961060160405190565b60405163d92e233d60e01b8152600490fd5b61016a90610799565b90610515565b634e487b7160e01b600052604160045260246000fd5b90601f01601f1916810190811067ffffffffffffffff8211176108c557604052565b61088d565b9061016a6108d760405190565b92836108a3565b6101486101006108ca565b9061016a6109a060076108fa6108de565b9461090b6109078261063a565b8752565b61092161091a6001830161063a565b6020880152565b6109376109306002830161063a565b6040880152565b610956610946600383016106b2565b6001600160a01b03166060880152565b61096c6109656004830161063a565b6080880152565b61098261097b6005830161063a565b60a0880152565b6109986109916006830161063a565b60c0880152565b015460ff1690565b151560e0840152565b610148906108e9565b634e487b7160e01b600052601160045260246000fd5b60001981146109d75760010190565b6109b2565b906003906109f660046109f0856003610887565b0161063a565b92600093610a0a610a068661023c565b9190565b14610aa457610a19600661063a565b92610a238561023c565b915b610a316101488761023c565b81141580610a9b575b15610a8357610a4c610a519183610887565b6109a9565b6080810151610a62610a068861023c565b14610a7b5760c00151610a7590926109c8565b91610a25565b509192505050565b9350505091610a06610148610a979261023c565b1490565b50848310610a3a565b509050565b6105a761014891610ab8600090565b50600561050b565b610ad190610acc61128e565b610ad9565b61016a6112c4565b61016a90610ae56112d6565b610af661081f6105a733600561050b565b610bb457610b08610148826003610887565b610b146004820161063a565b610b21610a06600061023c565b14610b8d5760070190610b35825460ff1690565b610b7b576101486001610b4793610577565b610b5033610502565b907f9bf343f162472ea44725d9fef31ca400cefadb001ac87596712013a7d00ded0361060160405190565b604051630231faf760e31b8152600490fd5b61056482610b9a60405190565b6301bccb9360e01b81529182916004830190815260200190565b60405163de8e9f3b60e01b8152336004820152602490fd5b61016a90610ac0565b610bdd6108de565b906000825260208080808080808089016000815201600081520160008152016000815201600081520160008152016000905250565b610148610bd5565b610c22610c12565b50610c3360046109f0836003610887565b610c40610a06600061023c565b14610c5357610a4c610148916003610887565b61056490610b9a60405190565b61016a90610c6c61114c565b610c76600061066b565b6001600160a01b0381166001600160a01b03831614610c99575061016a906111e8565b61056490610ca660405190565b631e4fbdf760e01b8152918291600483016001600160a01b03909116815260200190565b61016a90610c60565b90610ce894939291610ce361128e565b610cf1565b9061016a6112c4565b9061014894939291610d016112d6565b610ed0565b6101c4906001600160a01b031660601b90565b01918252565b018092610d06565b906000199061056d565b90610d3f61014861058e9290565b8254610d27565b906001600160a01b039061056d565b90610d6561014861058e92610502565b8254610d46565b90610d3f61014861058e9261023c565b6007610e3560e061016a94610d9b610d95600083015190565b86610d31565b610db2610da9602083015190565b60018701610d31565b610dc9610dc0604083015190565b60028701610d31565b610de9610de060608301516001600160a01b031690565b60038701610d55565b610e00610df7608083015190565b60048701610d6c565b610e17610e0e60a083015190565b60058701610d6c565b610e2e610e2560c083015190565b60068701610d31565b0151151590565b9101610577565b9061016a91610d7c565b9160001960089290920291821b911b61056d565b9190610e6961014861058e9390565b908354610e46565b90815491680100000000000000008310156108c55782610e9991600161016a9501815561071e565b90610e5a565b610ecc61016a94610ec5606094989795610ebe608086019a6000870152565b6020850152565b6040830152565b0152565b93929350610ee561081f6105a733600561050b565b610bb457610ef4610148610249565b8410801561112b575b61110457600093610f0d8561023c565b8083146110f25784036110bf575b610f25600661063a565b610f75610f3160405190565b8092610f696020830191439033428b8b8761052394610d1960208099989596610d1f828099610d198289610d1960149b610d199d9052565b908103825203826108a3565b610f87610f80825190565b9160200190565b2094610f9960046109f0886003610887565b610fa5610a068361023c565b03611098579061103c7fb443c9d721965c0b8b4db0fb8a37e80c522f56775bcddfae23035d6943ec9df89261102c610fdb6108de565b91610fe68a82850152565b610ff1876020850152565b610ffc886040850152565b33606084015261100d426080850152565b6110188560a0850152565b6110238960c0850152565b151560e0830152565b611037886003610887565b610e3c565b611047866004610e71565b61106361105c611057600661063a565b6109c8565b6006610d6c565b61106e866007610d31565b85929361109261107d33610502565b9661108760405190565b938493429085610e9f565b0390a490565b610564866110a560405190565b6354231b5160e11b81529182916004830190815260200190565b6110cf60046109f0866003610887565b6110db610a068761023c565b03610f1b576040516386a011c160e01b8152600490fd5b604051639dd854d360e01b8152600490fd5b6105648461111160405190565b63a6f7498560e01b81529182916004830190815260200190565b50611137610148610353565b8411610efd565b610148939291906000610cd3565b6111546106bc565b339081906001600160a01b0316036111695750565b6105649061117660405190565b63118cdaa760e01b8152918291600483016001600160a01b03909116815260200190565b6111a26112f4565b61016a6111b160006002610577565b7f5db9ee0a495bf2e6ff9c91a7834c1ba4fdd244a5e8aa4e537bd38aeae4b073aa6111db336102a9565b0390a1565b61016a61119a565b6112096112036111f860006106b2565b6105c8846000610d55565b91610502565b907f8be0079c531659141344cd1fd0a4f28419497f9722a3daafe3b4186f6b6457e061123460405190565b808061060a565b6112436112d6565b61016a61125260016002610577565b7f62e78cea01bee320cd4e420270b5ea74000d11b0c9f74754ebdbfc544b05a2586111db336102a9565b61016a61123b565b610148600261023c565b611298600161063a565b6112a0611284565b9081146112b25761016a906001610d6c565b604051633ee5aeb560e01b8152600490fd5b61016a6112cf610249565b6001610d6c565b60025460ff166112e257565b60405163d93c066560e01b8152600490fd5b61130361081f60025460ff1690565b61130957565b604051638dfc202b60e01b8152600490fdfea164736f6c6343000818000a",
  "linkReferences": {},
  "deployedLinkReferences": {}
}